:020000040800F2
:10000000C8B700200D020008771D0008C3120008C1
:10001000751D0008ED060008092A00080000000010
:10002000000000000000000000000000A91D000802
:10003000EF06000800000000791D0008AB1D000855
:1000400027020008270200082702000827020008EC
:1000500027020008270200082702000827020008DC
:1000600027020008270200082702000827020008CC
:1000700027020008270200082702000827020008BC
:1000800027020008270200082702000827020008AC
:10009000270200082702000827020008270200089C
:1000A000270200082702000827020008270200088C
:1000B000270200082702000827020008270200087C
:1000C000270200082702000827020008270200086C
:1000D000270200082702000827020008270200085C
:1000E000270200082702000827020008270200084C
:1000F000270200082702000827020008270200083C
:10010000270200082702000827020008270200082B
:100110002702000827020008111E00082702000815
:10012000270200082702000827020008270200080B
:1001300000F002F800F05AF80AA090E8000C82449F
:100140008344AAF10107DA4501D100F04FF8AFF27C
:10015000090EBAE80F0013F0010F18BFFB1A43F0A5
:1001600001031847B4D30200D4D302000A444FF06D
:10017000000C10F8013B13F0070408BF10F8014B06
:100180001D1108BF10F8015B641E05D010F8016B4B
:10019000641E01F8016BF9D113F0080F1EBF10F8AF
:1001A000014BAD1C0C1B09D16D1E58BF01F801CBD2
:1001B000FAD505E014F8016B01F8016B6D1EF9D555
:1001C0009142D6D37047000000230024002500266A
:1001D000103A28BF78C1FBD8520728BF30C148BFAA
:1001E0000B6070471FB51FBD10B510BD00F0E4F9DE
:1001F0001146FFF7F7FF21F0B1FE00F002FA03B459
:10020000FFF7F2FF03BC00F0BDF90000094880478A
:1002100009480047FEE7FEE7FEE7FEE7FEE7FEE7E8
:10022000FEE7FEE7FEE7FEE704480549054A064B00
:10023000704700000D1E000831010008C8A700200B
:10024000C8B70020C8AF0020C8AF002053EA020C96
:1002500000F069802DE9F04B4FF00006002B1FBF26
:10026000B3FA83F503FA05F424FA05F65E4012BFEB
:100270001643B2FA82F502FA05F4C5F120051EBF55
:1002800022FA05FC44EA0C04203556EA044C4FEAF5
:10029000144418BF641C4FF000084FF0000990424E
:1002A00071EB030C39D3002919BFB1FA81F701FAB8
:1002B00007F6B0FA80F700FA07F6C7F120071EBF6D
:1002C00020FA07FC46EA0C062037B6FBF4FCA7EB45
:1002D0000507103F07F01F0BCBF120060CFA0BFBB4
:1002E0002CFA06F644BFB3460026202FA4BF5E4674
:1002F0004FF0000B5BEA060C08BF4FF0010B19EB47
:100300000B09ABFB027C48EB0608C01B06FB02CCCA
:100310000BFB03CC71EB0C01C1E70B4602464146D7
:100320004846BDE8F08B13B54FF000004FF00001D8
:10033000AFF30080BDE81C40704740EA010302466D
:1003400030B59B0710D14FF0013400E008C208C956
:100350001D1B9D4315EAC41FF8D013F0FF0102F8DE
:10036000011B0DD01B0AF8E711F8013B002B02F826
:10037000013B05D011F8013B002B02F8013BF3D102
:1003800030BD10B5431C02E010F8011B71B18107AC
:10039000FAD14FF0013202C88C1A8C4314EAC21110
:1003A000F9D0C01A0A0603D0C01E10BDC01A10BD75
:1003B0000A0401D0801E10BD0902FCD0401E10BDF1
:1003C000032A40F2308010F0030C00F0158011F881
:1003D000013BBCF1020F624498BF11F801CB00F859
:1003E000013B38BF11F8013BA2F1040298BF00F8AD
:1003F00001CB38BF00F8013B11F0030300F025806A
:10040000083AC0F0088051F8043B083A51F804CB90
:10041000A0E80810F5E7121D5CBF51F8043B40F856
:10042000043BAFF30080D20724BF11F8013B11F861
:1004300001CB48BF11F8012B24BF00F8013B00F8A5
:1004400001CB48BF00F8012B704710B5203AC0F02F
:100450000B80B1E81850203AA0E81850B1E81850C5
:10046000A0E81850BFF4F5AF5FEA027C24BFB1E802
:100470001850A0E8185044BF18C918C0BDE8104073
:100480005FEA827C24BF51F8043B40F8043B08BF7C
:100490007047D20728BF31F8023B48BF11F8012B43
:1004A00028BF20F8023B48BF00F8012B70474FF0EF
:1004B000000200B5134694469646203922BFA0E8B4
:1004C0000C50A0E80C50B1F12001BFF4F7AF0907C0
:1004D00028BFA0E80C5048BF0CC05DF804EB8900B1
:1004E00028BF40F8042B08BF704748BF20F8022BF4
:1004F00011F0804F18BF00F8012B70474FF0013CFE
:1005000050F8042B51F8043B9A4221D1A2EB0C0382
:10051000934313EACC1317D150F8042B51F8043B42
:100520009A4215D1A2EB0C03934313EACC130BD1DF
:1005300050F8042B51F8043B9A4209D1A2EB0C036A
:10054000934313EACC13DBD04FF00000704700BF99
:10055000D01A01BAB1FA81F101F0180122FA01F0C2
:10056000CB40C1F12001DBB2C0B2C01A2CFA01F3BA
:10057000D11A914311EAC311E6D170477047704711
:100580007047000001491820ABBEFEE726000200BC
:1005900010B500F009F8006810BD10B5044600F071
:1005A00003F8046010BD70470048704768A700203A
:1005B0000048704768A700207546FFF7F9FFAE4670
:1005C00005006946534620F00700854618B020B55F
:1005D000FFF72AFEBDE820404FF000064FF000076D
:1005E0004FF000084FF0000B21F00701AC46ACE8DB
:1005F000C009ACE8C009ACE8C009ACE8C0098D4648
:10060000704710B50446AFF300802046BDE81040A7
:10061000FFF7F5BD00F076BE2DE9F0410D4601462D
:10062000002004464E1908E00702301B401E80B22D
:1006300000F007F8641C3844E4B2AC42F4D3BDE8DF
:10064000F08110B5044600F009FF200AA02101EB5B
:100650004000C0B200F0D2FE00F042FFE0B200F075
:10066000CDFE00F03DFF00F0F9FEA12000F0C6FE37
:1006700000F036FF002000F08BFE044600F00EFF75
:10068000204610BD2DE9F04116460D4607460024D0
:1006900009E0E00025FA00F0C1B2381980B200F09C
:1006A00006F8641CE4B2B442F3D3BDE8F08170B53F
:1006B0000D46044600F0D2FE200AA02101EB4000C6
:1006C000C0B200F09BFE00F00BFFE0B200F096FE1F
:1006D00000F006FF284600F091FE00F001FF00F058
:1006E000DDFEBDE870400A2005F064BFFEE77047FC
:1006F00072B6FEE710B5144601F0E2F82046BDE8F8
:10070000104001F05DBA00002DE9F84FDFF8C89104
:100710000024A9F1040B23460F2709F1040AABF1C9
:10072000040ED1E00125A54006EA0502AA4276D1D1
:10073000DFF8A8C14E68A6EB0C0866452BD00DDC8F
:10074000032E34D005DC36B3012E19D0022E2FD162
:100750001BE0112E16D0122E2AD119E0B8F5881FF1
:1007600019D006DCB8F5803F15D0B8F5801F1FD131
:1007700011E0B8F5001F0ED0B8F5041F18D10AE03B
:10078000CB6815E0CB681B1D12E0CB6808330FE087
:10079000CB680C330CE08B682BB1012B4FF00803B6
:1007A00003D0456104E0042302E0056100E000237A
:1007B000FF2A01D8064601E000F104064FEA84054D
:1007C00001D9A5F12005D6F8008007FA05FC28EA32
:1007D0000C0803FA05F548EA0508C6F800804D68DC
:1007E000ED0070D53E4DAE6946F00106AE61AD69D3
:1007F00024F0030605F0010500953A4D06EB050CC3
:10080000DCF80850A607360F07FA06F825EA0805AF
:10081000DFF8D480404503D14FF0000825E052E0D6
:10082000DFF8C880404502D14FF001081DE0DFF835
:10083000C080404502D14FF0020816E0DFF8B480D6
:10084000404502D14FF003080FE0DFF8AC8040458F
:1008500002D14FF0040808E0DFF8A080404502D143
:100860004FF0050801E04FF0060808FA06F848EADC
:100870000508CCF808804D68D9F80060ED024D46B7
:1008800001D5164300E096432E604D68DAF800600B
:10089000AD02554601D5164300E096432E604D68E3
:1008A000DBF80060AD035D4601D5164300E09643DA
:1008B0002E604D68DEF80060ED03754601D51643E5
:1008C00000E096432E60641C0A681646E2407FF4FE
:1008D00029AFBDE8F88F00000804014000001110A6
:1008E000001002400000014000080140000C0140DF
:1008F000001001400014014000180140001C01409C
:100900000AB1016170470904FBE7000001488068F3
:1009100070470000000000200248816802781144FE
:100920008160704700000020074810B5016841F061
:1009300010010160032000F075F80F2000F006F8A8
:1009400000F024F8002010BD0020024070B50D4DCD
:1009500004464FF47A712878B1FBF0F00A4909682F
:10096000B1FBF0F000F0C2FA48B9102C07D2002217
:100970002146501E00F036F800206C6070BD01204A
:1009800070BD0000000000200C0000200C4808B5DD
:10099000816941F001018161816901F001010091EA
:1009A000C16941F08051C161C06900F08050009080
:1009B0000448416821F0E06141F00071416008BDE8
:1009C0000010024000000140002809DB00F01F0277
:1009D000012191404009800000F1E020C0F80011A1
:1009E00070470000F0B40E4B1B680C46C3F30223A3
:1009F000C3F10705042D00D90425191D072901D2CB
:100A0000002300E0DB1E012606FA05F1491E214005
:100A100099409E40761E16403143F0BC01F0F5BF70
:100A20000CED00E0064900F0070208684FF6FF03EE
:100A3000184040EA0220034A104308607047000053
:100A40000CED00E00000FA052DE9F0470F46050027
:100A500061D0434E306800F00700B84209D23068D8
:100A600020F0070038433060306800F00700B842DB
:100A700051D128683B4C810712D5400703D56068E7
:100A800040F4E06060602878000703D5606840F4B7
:100A9000605060606068A96820F0F0000843606002
:100AA0002878C00728D06868012810D0216802285B
:100AB00010D0890700292EDA616821F00301014373
:100AC0006160FFF723FF804641F288390DE021681D
:100AD0008903EFE78901EDE7FFF718FFA0EB0801B5
:100AE000494502D90320BDE8F0876068696800F0D5
:100AF0000C00B0EB810FEFD1306800F00700B84276
:100B00000BD9306820F0070038433060306800F0BF
:100B10000700B84201D00120E5E72878400705D555
:100B20006068E96820F4E0600843606028780007A6
:100B300006D56068296920F4605040EAC100606011
:100B400000F01EF86168084AC1F30311515CC84007
:100B50000649086006480068FFF7F8FE0020C2E773
:100B60000020024000100240847702080C000020A0
:100B70000400002001480068704700000C000020BD
:100B80000E4A51680E4801F00C03042B11D0082BBB
:100B90000FD10C48C1F38343C903C05C0AD5516827
:100BA000084AC1F34041921E515C054A5043B0FBD4
:100BB000F1F07047044948437047000000100240BC
:100BC00000127A007477020800093D002DE9F84F01
:100BD000040070D02078C04DC00749D06868C0F3C9
:100BE0008100012807D06868C0F38100022809D17C
:100BF0006868C00306D52868800339D56068002876
:100C0000E7D035E06068B0F5803F0BD010B1B0F5AB
:100C1000A02F11D0286820F480302860286820F4A4
:100C2000802002E0286840F480302860606890B13D
:100C3000FFF76CFE06460AE0286840F48020286032
:100C4000F0E700BFFFF762FE801B642873D82868B6
:100C50008003F7D50CE0FFF759FE064605E000BF1C
:100C6000FFF754FE801B6428F0D828688003F7D46F
:100C700020789A4E80074FF001094FF0000839D5CF
:100C8000686810F00C0F07D06868C0F38100022874
:100C900009D16868C00306D42868800714D5206984
:100CA000012808D110E02069B0B1C6F80090FFF724
:100CB0002DFE074605E00AE1FFF728FEC01B0228CB
:100CC000C4D828688007F7D52868616920F0F80043
:100CD00040EAC10028600DE0C6F80080FFF716FE6C
:100CE000074604E0FFF712FEC01B022823D828683D
:100CF0008007F7D4207800072CD57948A169D9B1AD
:100D0000C0F80090FFF702FE074604E0FFF7FEFD83
:100D1000C01B02280FD8686A8007F7D571484FF4C6
:100D2000FA510068B0FBF1F0009000BF0098411E3E
:100D30000091FAD20EE080E0C0F80080FFF7E6FDF7
:100D4000074604E0FFF7E2FDC01B022875D8686A79
:100D50008007F7D42078400760D5E8690027C000F5
:100D600008D4E86940F08050E861E869012700F0A4
:100D7000805000905C480168C90513D4016883461F
:100D800041F480710160FFF7C1FD824606E000BFBB
:100D9000FFF7BCFDA0EB0A0064284ED8DBF800008A
:100DA000C005F5D5E06801280AD008B1052813D0A0
:100DB000286A20F001002862286A20F0040002E07E
:100DC000286A40F001002862E06841F2883B98B14F
:100DD000FFF79CFD82460BE0286A40F00400286281
:100DE000EEE700BFFFF792FDA0EB0A0159455AD884
:100DF000286A8007F6D50CE0FFF788FD824605E0FB
:100E0000FFF784FDA0EB0A0159454CD8286A8007FA
:100E1000F6D41FB1E86920F08050E861E06988B33A
:100E20006968C1F38101022944D00228C6F86080B4
:100E300004D0FFF76BFD044638E034E0FFF766FDB1
:100E4000074604E0FFF762FDC01B02282BD8286884
:100E50008001F7D4206AB0F5803F05D16868A168A9
:100E600020F4003008436860D4E908010843696849
:100E700021F4741108436860C6F86090FFF746FDDE
:100E8000044606E025E000BFFFF740FD001B0228F6
:100E900009D828688001F7D51BE000BFFFF736FDB1
:100EA000001B022802D90320BDE8F88F28688001C2
:100EB000F4D40EE00128F7D06868226A00F480318B
:100EC000914204D1616A00F47010884201D001207F
:100ED000EAE70020E8E7000000100240000042427C
:100EE000800442420C0000200070004010B5401EFB
:100EF000B0F1807F01D3012010BD4FF0E02460618C
:100F00000F21601701F081FD0020A0610720206102
:100F1000002010BD7047704770B590F83C20012A42
:100F20002CD0012480F83C40022280F83D20036848
:100F30005A689D6822F070060A6832435A60104B66
:100F400002689A420ED00F4B9A420BD0B2F1804FFA
:100F500008D00D4B9A4205D00C4B9A4202D00C4B54
:100F60009A4204D1496825F080031943916080F8C2
:100F70003D40002180F83C10084670BD022070BD45
:100F8000002C0140003401400004004000080040F3
:100F9000000C004010B5040003D094F83D0010B1DF
:100FA00007E0012010BD002084F83C00204600F03E
:100FB0001FF8022084F83D00211D206800F02EFF5C
:100FC000012084F8460084F83E0084F83F0084F84D
:100FD000400084F8410084F8420084F8430084F81B
:100FE000440084F8450084F83D00002010BD000056
:100FF00008B500680B49884212D10B48C16941F01D
:101000001001C161C069032200F0100000900121AD
:101010003620FFF7E7FCBDE808403620FFF7D4BCD8
:1010200008BD0000001000400010024090F83D1084
:10103000012901D001207047022180F83D1001688C
:10104000CA6842F00102CA6000680E4988420ED0A8
:101050000D4988420BD0B0F1804F08D00B4988422F
:1010600005D00B49884202D00A49884204D18168E0
:1010700001F00701062903D0016841F00101016078
:1010800000207047002C0140003401400004004063
:1010900000080040000C004070B5044690F83C0089
:1010A0000025012817D0012684F83C60022084F82E
:1010B0003D002068826822F0770222F47F4282603D
:1010C0000868502838D00DDC20284FD005DC90B3BC
:1010D000102811D14AE0022070BD302846D04028A7
:1010E0000AD13BE060282FD070280DD0B0F5805F8A
:1010F00003D0B0F5005F12D0012584F83D600020D8
:1011000084F83C00284670BDCB68D1E901212068F5
:1011100000F0D2FE2068816841F0770109E0CB68D9
:10112000D1E90121206800F0C7FE2068816841F400
:1011300080418160E1E719E0CA684968206800F0F1
:10114000CDFE5021206806E0CA684968206800F09A
:10115000D6FE6021206800F0B9FECEE7CA68496873
:10116000206800F0BBFE40212068F4E722680146B9
:101170001046F0E770472DE9F04104460068C66864
:1011800005694FF00007A90713D5B10711D5F91E5E
:10119000016101202077206880698007204602D005
:1011A000FFF7E8FF04E000F07EF8204600F07CF84E
:1011B0002777680716D5700714D521686FF00400EB
:1011C0000861022020772068806910F4407F204663
:1011D00002D0FFF7CFFF04E000F065F8204600F0F2
:1011E00063F82777280715D5300713D521686FF0E6
:1011F00008000861042020772068C0698007204625
:1012000002D0FFF7B7FF04E000F04DF8204600F0F1
:101210004BF82777E80616D5F00614D521686FF04D
:1012200010000861082020772068C06910F4407F12
:10123000204602D0FFF79EFF04E000F034F820467D
:1012400000F032F82777E80708D0F00706D02168C9
:101250006FF001000861204600F028F8280608D544
:10126000300606D521686FF0800008612046FFF740
:1012700051FE680608D5700606D521686FF040005B
:101280000861204600F01CF8A8060AD5B00608D56B
:1012900021686FF0200008612046BDE8F041FFF7AB
:1012A0003ABEBDE8F081704770470000006803490E
:1012B000884202D1012020F051B870470010004050
:1012C0007047FEE770B50D4C0025C4F8B0510C48CE
:1012D000416821F470414160416841F440514160EE
:1012E000C4F8AC51022004F5D67405F077F901205A
:1012F0006060022005F072F9656070BD0000224256
:101300000010014010B586B0002002900D488169A0
:1013100041F0100181618069012400F01000049007
:101320004FF4C050CDE900040320039069460648FD
:10133000FFF7EAF90548C0F8B041C0F8AC4106B083
:1013400010BD0000001002400010014000002242C9
:1013500070B50D4C0025C4F8B0510C48416821F41B
:1013600070414160416841F4405141600126C4F838
:10137000AC61022004F5D67405F030F966600220F5
:1013800005F02CF9656070BD00002242001001409C
:101390002DE9F047814617480024416821F4704147
:1013A0004160416841F400414160134E25462746A3
:1013B0004FF00108C6F8B071022005F00FF9C6F829
:1013C000B0816006040ED6F82C0108B1641CE4B2AA
:1013D000012005F003F96D1CEDB2082DEAD3B9F137
:1013E000000F04D0FFF76EFF2046BDE8F087FFF73F
:1013F000AFFFF9E700100140000022422DE9F04163
:1014000006461448416821F470414160416841F446
:1014100040514160104C0027C4F8B0713D464FF078
:101420000108F009C4F8AC017006060E022005F0B0
:10143000D5F8C4F8B081022005F0D0F8C4F8B07136
:10144000022005F0CBF86D1CEDB2082DE9D3BDE804
:10145000F0810000001001400000224270B50D48EC
:10146000416821F470414160416841F4405141605C
:10147000094C0120C4F8AC01C4F8B001042004F503
:10148000D67405F0ABF800252560042005F0A6F819
:10149000656070BD00100140000022420E4810B58A
:1014A000416821F470414160416841F4405141601C
:1014B0000A4C0020C4F8B001C4F8AC01042004F5C3
:1014C000D67405F08BF8012060602060BDE8104004
:1014D000042005F083B80000001001400000224203
:1014E00070B513480024416821F47041416041689F
:1014F00041F4004141600F4D0126C5F8AC61304612
:1015000005F06CF8C5F8B061012005F067F807E058
:10151000641CE4B2FA2C03D9FFF7C0FF012070BDB0
:10152000D5F82C010028F3D1C5F8B00170BD00003A
:1015300000100140000022422DE9F047134C814683
:1015400000216088401E83B22088401E82B2084677
:1015500000F0BAF90E484FF400670760A0F10408E4
:101560000115C8F80010002609E0002503E04846F0
:1015700000F026FB6D1C2088A842F8D8761C6088F5
:10158000B042F2D8C8F80070BDE8F087B802002079
:10159000140C01402DE9FE4F161ACDE900104FF052
:1015A00000085D1A47464FF0FF30002E02DD4FF075
:1015B000010102E003D14FF000018B4602E08346B7
:1015C000C6F10006002D02DD4FF0010002E003D15C
:1015D0004FF00000824602E08246C5F10005AE42AF
:1015E00001DD344600E02C46601C4FF000090290FB
:1015F00018E0009881B2019880B200F019F8B04468
:101600002F44A04504DD0198A8EB0408584401903C
:10161000A74203DD00983F1B5044009009F10100F0
:101620001FFA80F902998945E3DDBDE8FE8F0000CD
:1016300010B500F045F903480088BDE8104000F0FF
:10164000BFBA0000100000202DE9F041141A5D1A05
:10165000641C6D1CA4B2AFB2069E00F035F90025E3
:101660007C4304E0308800F0ABFA6D1CB61CAC4241
:10167000F8D8064841880088491EBDE8F041401E60
:101680008BB282B20021084600F01EB9B8020020D9
:1016900070B586B00F4800240294816941F00801BA
:1016A00081618069012500F0080004904FF43E40FC
:1016B000CDE900050320084E039069463046FFF748
:1016C00023F8A8038DE8310069463046FFF71CF87F
:1016D00006B070BD00100240000C014010B5FFF7CD
:1016E000D7FF00F0DBF8F72000F022FAA92000F085
:1016F0000FFA512000F00CFA2C2000F009FA822099
:1017000000F006FAC02000F013FA112000F000FAF1
:10171000092000F0FDF9C12000F00AFA412000F094
:10172000F7F9C52000F004FA002000F0F1F90A20D2
:1017300000F0EEF9802000F0EBF9B12000F0F8F9AC
:10174000B02000F0E5F9112000F0E2F9B42000F03B
:10175000EFF9022000F0DCF9B62000F0E9F90220F0
:1017600000F0D6F9422000F0D3F9B72000F0E0F9FC
:10177000C62000F0CDF9BE2000F0DAF9002000F01C
:10178000C7F9042000F0C4F9E92000F0D1F90020E5
:1017900000F0BEF9362000F0CBF9682000F0B8F96F
:1017A0003A2000F0C5F9662000F0B2F9E02000F020
:1017B000BFF9002000F0ACF9072000F0A9F91020D3
:1017C00000F0A6F9092000F0A3F9172000F0A0F915
:1017D0000B2000F09DF9412000F09AF9892000F0DB
:1017E00097F94B2000F094F90A2000F091F90C20B1
:1017F00000F08EF90E2000F08BF9182000F088F927
:101800001B2000F085F90F2000F082F9E12000F0A4
:101810008FF9002000F07CF9172000F079F91A20E8
:1018200000F076F9042000F073F90E2000F070F952
:10183000062000F06DF92F2000F06AF9452000F035
:1018400067F9432000F064F9022000F061F90A20F2
:1018500000F05EF9092000F05BF9322000F058F941
:10186000362000F055F90F2000F052F9112000F059
:101870005FF9782004F09EFE292000F059F901203C
:1018800000F076F904490120C1F8A401BDE8104038
:101890004FF47840FFF750BE0080214210B5074852
:1018A0004FF480540460642004F084FE0348001F59
:1018B0000460BDE81040322004F07CBE140C0140EE
:1018C0000B460246AFF300802DE9F041DFF850806F
:1018D00007461C4615460E4698F80A0000F028F9FF
:1018E000380A00F015F9F8B200F012F9280A00F0F1
:1018F0000FF9E8B200F00CF998F80C0000F018F9B4
:10190000300A00F005F9F0B200F002F9200A00F008
:10191000FFF8E0B200F0FCF8BDE8F04100F018B9C3
:10192000B80200202DE9FF4F81B08A460EA9DFF8EA
:10193000EC9091E83100203800F0FF080AEB040039
:10194000401E83B20198B9F800B000EB5400401E6D
:1019500082B251460198FFF7B7FF002D4FF0000506
:1019600049D12F4808EB480100EB810A00F274408E
:1019700000EB081817E00C2C03D018F805700026AF
:101980000CE01AF80570FAE7F80701D0039800E0B8
:10199000049800F015F97F08761CF6B2B6EB540FE8
:1019A000F2D36D1CEDB2A542E5D326E00C2C08D095
:1019B0001C4901EB08100026475D0AEB050000906A
:1019C00014E0174808EB480100EB8100F3E70398A7
:1019D000A9F80000F80706D0009881B201983044B9
:1019E00080B2FFF725FE7F08761CF6B2B6EB540FE7
:1019F000EDD36D1CEDB2A542D8D30B48A9F800B0C9
:101A00004188008805B0491EBDE8F04F401E8BB2EA
:101A100082B200210846FFF757BF000010000020E7
:101A200094770208087C0208B80200202DE9FF4FD5
:101A300083B00026DDF840801D463446B2464FEAAA
:101A40005807DFF86490DFF864B028E0281B401ED8
:101A5000C1B20A2020F0A9FE0599B1FBF0F00A21DD
:101A6000B0FBF1F201FB120026B9691E8C4201DACB
:101A700028B101263030C0B28DE8010502E02022F5
:101A80008DE804050398B9F8003007FB040080B224
:101A9000BBF800200499FFF745FF641CE4B2AC4298
:101AA000D4D307B0BDE8F08F120000201000002052
:101AB0002DE9FE4F1C4691468A460546114E124FAF
:101AC000DFF84880DDF830B014E03188491EA942C3
:101AD00015DB7188491E514511DB8DE8010A3B88F1
:101AE000B8F8002051462846FFF71CFF05EB5900C7
:101AF00085B2641C2078A0F120015E29E5D9BDE8FB
:101B0000FE8F0000B802002012000020100000200C
:101B100070B506494FF400640C60044D09152D1F83
:101B2000296000F02BF92C6070BD0000140C0140FE
:101B300010B506494FF400640C600A150A6000F005
:101B40001DF90248001F046010BD0000140C014084
:101B50000148007AFFF7ECBFB802002010B50C4630
:101B6000FFF7E6FFE0B2BDE81040FFF7D1BF00008D
:101B700012492A224FF4F0734A812B228A812C22A7
:101B80000A814FF4A07258B101280DD002280FD05D
:101B9000032811D10B804A80A8213620FFF7DEBF31
:101BA0000A804B800821F8E70B804A806821F4E71F
:101BB0000A804B80C821F0E770470000B80200207F
:101BC00010B50446F82000EA1420FFF7A1FFFC201E
:101BD00000EAD400FFF79CFFE006BDE81040000ECD
:101BE000FFF796BF2DE9F04786B0002444480094E3
:101BF000019402940394816941F01001816181692B
:101C000001F010010491816941F020018161816935
:101C100001F020010491816941F00801816181692D
:101C200001F008010491816941F00401816180693A
:101C3000DFF8D08000F0040042F201050490002299
:101C400029464046FEF75CFE012208214046FEF789
:101C500057FEDFF8B49000224FF424414846FEF7C7
:101C60004FFE01224FF4D0514846FEF749FEDFF8FF
:101C70009CA0012204215046FEF742FE0095022658
:101C800001250396CDE9015469464046FEF73CFD27
:101C900040F204408DE8310069464046FEF734FDCD
:101CA00008200327CDE90005CDE9024769464046F3
:101CB000FEF72AFD7802CDE90005CDE90246694626
:101CC0004846FEF721FD4FF43840CDE90005CDE947
:101CD000024769464846FEF717FDA8038DE8310024
:101CE00069464846FEF710FD0420CDE90005CDE920
:101CF000024669465046FEF707FD06B0BDE8F0878C
:101D00000010024000100140000C0140001401408E
:101D100010B586B0002416480094019402940394F0
:101D2000049412490594C0E900144FF6FF71C0E90C
:101D3000024104618461FFF72DF908B1FEF7D8FC78
:101D40004FF48050009069460948FFF7A5F908B1A3
:101D5000FEF7CEFC049404A905480594FFF7DCF8CF
:101D6000002801D0FEF7C4FC06B010BD00040040FE
:101D700070020020FEE7FEE77047000070B5094BD7
:101D800008210C031D1D8A02060601D51C6000E017
:101D90002C602A601A604006000E491E11F0FF01F7
:101DA000F2D170BD100C01407047FEF7B5BD30B5E3
:101DB0008FB028216846FEF77AFB14210AA8FEF7A7
:101DC00076FB01210804CDE90010002402940225CD
:101DD0000491CDE907504FF4E01009906846FEF7F2
:101DE000F5FE08B172B6FEE70F20CDE90A054FF403
:101DF0008060CDE90C4002210AA80E94FEF724FE73
:101E0000002801D072B6FEE70FB030BD7047000069
:101E10000148FFF7B0B90000C8020020F0B5026821
:101E2000204C214D214E224F224B4FF0804CA0429E
:101E300009D0984207D0604505D0A84203D0B042EF
:101E400001D0B84204D122F0700E4A6842EA0E0274
:101E5000A04209D0984207D0604505D0A84203D0DF
:101E6000B04201D0B84203D122F44075CA682A4377
:101E70004D6922F080022A4302608A68C2620A68C1
:101E80008262A04201D0984201D109690163012117
:101E900041610169C90703D0016921F001010161B4
:101EA000F0BD0000002C014000040040000800408C
:101EB000000C00400034014010B5846842EA03225F
:101EC00024F47F440A432243826010BD826822F0DA
:101ED00070020A4342F007018160704710B5036A3F
:101EE000046A24F001040462846924F0F00444EAE2
:101EF000021423F00A020A438461026210BD10B585
:101F0000036A046A24F010040462846923F0A003C5
:101F100024F4704444EA023243EA0111826101620E
:101F200010BD00002DE9FF4F81B00D46DDE910879F
:101F3000464906464FF47840DDF838B0DDF8489061
:101F400008809246012442A31022A0212820009458
:101F5000FFF7AEFD3FA31022A02178200094FFF7E9
:101F6000A7FD3DA31022B42128200094FFF7A0FD77
:101F70003AA31022B42178200094FFF799FD38A3EA
:101F80001022C82128200094FFF792FD35A31022CB
:101F9000C82178200094FFF78BFD33A31022DC21A9
:101FA00028200094FFF784FD30A31022DC21782044
:101FB0000094FFF77DFD2EA31022F021282000942D
:101FC000FFF776FD102404233246A0214020009420
:101FD000FFF72CFD04232A46A02190200094FFF750
:101FE00025FD04235246B42140200094FFF71EFD36
:101FF00004230094B4219020049AFFF717FD0423D2
:102000005A46C82140200094FFF710FD0094042395
:10201000C82190200F9AFFF709FD04234246DC21D6
:1020200040200094FFF702FD04233A46DC21902073
:102030000094FFF7FBFC10480094032301884A46F4
:102040006020FFF7F3FC05B0BDE8F08F1000002022
:1020500078313A0079313A0078323A0079323A00F0
:1020600078333A0079333A0078343A0079343A00D8
:102070006661632069733A00B80200202DE9F04FD1
:10208000DFF8ECB38FB01F20ABF80000F9484FF633
:10209000FF7900254E46A0F800902F465C4630465A
:1020A000FFF74AFA4FF4784AA4F800A03046FFF749
:1020B00043FAA846A4F800800126EFA310222821A5
:1020C0000A200096FFF7F4FCF3A3102238210A201F
:1020D0000096FFF7EDFCF9A3102248210A20009694
:1020E000FFF7E6FCFDA3102258210A200096FFF717
:1020F000DFFC14215246084600F06AFAFE4C84F8D0
:102100001480C4F818804FF47A78616801208847F9
:10211000207DB6EB901F44D120F04000207509A827
:10212000218A20F8251000EB85006D1C0027618AAC
:10213000EDB24180012D06D0022D10D0032D1DD00F
:10214000042D2ED139E014214A46084600F040FA09
:10215000EA4852460088143880B214211FE0E7484C
:102160004A4614210088143880B200F031FAE3485E
:1021700052464088143881B2142010E0DF484A46A5
:102180004088143881B2142000F022FADB4852460D
:102190004088143881B2D9480088143880B200F0E1
:1021A00017FA0A2004F006FA7F1CBFB24745ACD9E3
:1021B00000F04CFA0FB0BDE8F08FBDF82400BDF878
:1021C0002810401A00D54042BDF82610BDF82A203C
:1021D000891A00D54942404301FB010024F03FFE2B
:1021E00022F0B6F824F00EFE80B20390BDF82C0069
:1021F000BDF83010401A00D54042BDF82E10BDF891
:102200003220891A00D54942404301FB010024F0E5
:1022100026FE22F09DF824F0F5FD80B2029025F014
:10222000E3F80546039825F0DFF8294624F0C6FFB9
:10223000B3490090884249DDB249884246DC0398A0
:10224000F0B30298E0B3BDF82400BDF82C10411A99
:1022500000D54942BDF82600BDF82E20801A00D5D1
:10226000404249434043084424F0F9FD22F070F80D
:1022700024F0C8FD80B20390BDF82800BDF83010EE
:10228000401A00D54042BDF82A10BDF83220891A04
:1022900000D54942404301FB010024F0E0FD22F05B
:1022A00057F824F0AFFD80B225F09EF8054603985C
:1022B00025F09AF8294624F081FF9149009000E02A
:1022C00004E0884202DD8F4988422EDD8B480025DC
:1022D0004A46418800881439143889B280B200F027
:1022E00077F914215246084600F072F986490098A1
:1022F00025F08EF825F040F880B2BDF83210BDF818
:102300003030BDF82E20CDE90310CDE90123BDF812
:102310002C000090BDF82A30BDF82820BDF826100A
:10232000BDF82400FFF7FEFDEFE6BDF82800BDF87C
:102330002C10401A00D54042BDF82A10BDF82E20BE
:10234000891A00D54942404301FB010024F087FD72
:1023500021F0FEFF24F056FD80B20390BDF824006A
:10236000BDF83010401A00D54042BDF82610BDF827
:102370003220891A00D54942404301FB010024F074
:102380006EFD21F0E5FF24F03DFD80B225F02CF834
:102390000546039825F028F8294624F00FFF5849F0
:1023A0000090884292DD574988428FDCBDF82810A2
:1023B000BDF8240004900291081A24F0FDFF0546A0
:1023C0004E48008803900090283824F0F5FF2946F5
:1023D00024F0F4FEA061019002990498084425F0CD
:1023E00003F8019925F014F80546009824F0FCFF45
:1023F000294625F0D9F84FF0FF3125F07CF924F07B
:102400009FFF2084BDF82E100491BDF82600079090
:10241000081A24F0D1FF05463848408802900690FB
:10242000283824F0C9FF294624F0C8FEE06105469B
:10243000059004990798084424F0D6FF294624F013
:10244000E7FF0546069824F0CFFF294625F0ACF8B3
:102450004FF0FF3125F04FF924F072FF60840198AE
:1024600024F06EFF002800DA4042022856DC4DE0DE
:102470001000002012000020506C6561736520750B
:10248000736520746865207374796C757320636C50
:1024900069636B207468650063726F7373206F6E7D
:1024A000207468652073637265656E2E54686520BC
:1024B00063726F73732077696C6C0000616C776175
:1024C0007973206D6F766520756E74696C20746801
:1024D000652073637265656E2000000061646A7533
:1024E00073746D656E7420697320636F6D706C65B5
:1024F0007465642E0000000018000020B80200205F
:102500003333733F6666863F0000C842059824F067
:1025100017FF002800DA4042022829DD0298002532
:10252000143881B203984A46143880B200F050F84B
:1025300014215246084600F04BF819A310221A2124
:1025400028200096FFF7B4FA94F8240040B1002048
:1025500084F8240030B1174890210170D02105E0A3
:102560000120F5E71348D021017090214170CCE59E
:102570001F20ABF800004C464846FEF7DDFF0EA3D7
:1025800010226E2123200096FFF792FA404604F0B5
:1025900011F800F097F92046FEF7CEFF0AE600009A
:1025A0005450204E65656420726561646A75737469
:1025B0002100000014000020546F756368205363ED
:1025C0007265656E2041646A757374204F4B2100FB
:1025D0002DE9F843DFF8709004460D30A9F800208B
:1025E00082B2A4F10C000D4680B20B46FEF7D2FF7A
:1025F00005F10D0083B2193881B222461046FEF76C
:10260000C9FF6E1C04F10108B1B21FFA88F0FFF790
:102610000FF8B1B2661EB0B2FFF70AF86F1EB9B27A
:102620001FFA88F0FFF704F8B9B2B0B2FFF700F86C
:10263000002000900623B9F80020294620460CF01F
:10264000C4FDBDE8F88300001000002070B53520FF
:10265000FDF7F7FF0A2801D0002070BD04212820D3
:10266000FDF7DAFF24F0A8FE144D294624F0A6FD5C
:10267000134C0421A0612C20FDF7CEFF24F09CFE1A
:10268000294624F09BFDE06102213020FDF7C4FFC4
:10269000208402213220FDF7BFFF60843420FDF743
:1026A000D0FF9022211F84F82400D02310B10A709B
:1026B0004B7001E00B704A70012070BD20BCBE4C15
:1026C0001800002070B586B01F480024029481696C
:1026D00041F010018161816901F01001049181696B
:1026E00041F0010181618069012500F00100049041
:1026F00042F20900CDE900050320144E039069461B
:102700003046FEF701F840F204408DE8310069469A
:102710003046FDF7F9FF0E49881E00F081F8FDF7FD
:1027200079FFFFF793FF10B1002006B070BD4FF6A0
:10273000FF70FEF701FFFFF7A1FC00F0C3F8FFF701
:1027400085FF0120F1E70000001002400010014069
:102750002A0000202DE9F0410027174C3E463D4657
:10276000C4F88071C4F88C71C4F8B47104F5C074F5
:1027700000F030F9062003F031FF2560012003F05E
:102780002DFF0121216025604FF6FF70A4F5C07474
:1027900000EA4606C4F88051C4F88011D4F8082134
:1027A0000AB1761CB6B27F1CFFB2102FF0D33009ED
:1027B000C4F8B411BDE8F08100002242FEB506461F
:1027C00000256C463046FFF7C5FF24F815006D1C48
:1027D000ADB2052DF6D30020431C99B20CE000BF2A
:1027E00034F8102034F81150AA4203D924F81050BC
:1027F00024F81120491C89B20529F1D398B2042884
:10280000EAD300215FF0010034F81020401C11448D
:1028100080B289B20428F7D30320B1FBF0F0FEBDEB
:102820002DE9F041074C06460D462078FFF7C6FF1C
:1028300007466078FFF7C2FF378028800120BDE897
:10284000F0810000140000207FB50C460546694663
:1028500002A8FFF7E5FF00282FD001A903A8FFF782
:10286000DFFF002829D0BDF80C30BDF808209342C6
:1028700003D803F13200824205D39A421FD802F1F5
:10288000320083421BD2BDF80410BDF80000814223
:1028900003D801F13206B04204D388420FD8323057
:1028A00081420CD2D01840082880BDF80000BDF845
:1028B0000410084440082080012004B070BD0020AE
:1028C000FBE7000070B5174C174D2946A06924F0AE
:1028D0009FFD24F035FD014604222820FDF7D2FE9D
:1028E0002946E06924F094FD24F02AFD01460422E3
:1028F0002C20FDF7C7FEB4F9201002223020FDF78E
:10290000C1FEB4F9221002223220FDF7BBFE94F87A
:1029100024103420FDF7CBFEBDE870400A2135209D
:10292000FDF7C5BE1800002020BCBE4C70B50246A5
:102930002648D0F82801264C30B1207D01063AD532
:1029400020F0800020753DE0214800F11201103098
:1029500012B1FFF779FF24E0FFF776FF08B3B4F96F
:10296000200024F029FD0546208A24F03DFDA169C0
:1029700024F04EFD294624F0B9FB24F0FDFC208212
:10298000B4F9220024F018FD0546608A24F02CFDDD
:10299000E16924F03DFD294624F0A8FB24F0ECFC7D
:1029A0006082207D00060DD4C0202075208AA08181
:1029B000608AE08106E00020A081E0814FF6FF7090
:1029C00020826082207D00F0800070BD00002242E5
:1029D0001800002030B500210A4A0B4601240506E4
:1029E00002D5C2F88C4101E0C2F88C314006000EDD
:1029F000C2F88031C2F88041491CC9B20829EED31F
:102A000030BD000000002242FEE70907090E002841
:102A100004DB00F1E02080F80014704700F00F00A4
:102A200000F1E02080F8141D704770B504460025C1
:102A30006FF02F0608E02068411C2160007805EB4C
:102A4000850106EB410145182068007800F050F838
:102A50000028F0D1284670BD2DE9F05F15461C46D0
:102A6000DDF828B00E46074601EB040800EB050A26
:102A70001FFA88F11FFA8AF05A46FDF73BFEA7EBD2
:102A800005091FFA88F11FFA89F05A46FDF732FE50
:102A9000A6EB04081FFA88F11FFA8AF05A46FDF7E0
:102AA00029FE1FFA88F11FFA89F05A46FDF722FE27
:102AB00006EB050807EB04091FFA88F11FFA89F0F5
:102AC0005A46FDF717FE3C1B1FFA88F1A0B25A4682
:102AD000FDF710FE751BA9B21FFA89F05A46FDF7E3
:102AE00009FEA9B2A0B25A46BDE8F05FFDF702BEEA
:102AF0003038092801D801207047002070470000B5
:102B000010B54021074801F077F900221E21064840
:102B10001EF09EFC054CA06002F0CAF90020207057
:102B200010BD00009C650020594F0008D80100200E
:102B300070B5B1F90030B2F90040A34200DC234681
:102B40000380B1F90250B2F90240A54200DD2C46E3
:102B50004480B1F90460B2F90450AE4200DA35465F
:102B60008580B1F90610B2F90620914200DB1146CA
:102B7000C1800120AB4201DC8C4200DD002070BD31
:102B8000F8B50D460446B0F90000B1F9001016463C
:102B9000884247DBB4F90210B5F90220914241DBCB
:102BA000B4F90410B5F9042091423BDCB4F90610E5
:102BB000B5F90620914235DC96B3ADF80000608887
:102BC000ADF8020032466946284600F099F8002820
:102BD00027D0A088ADF800006088ADF8020032462A
:102BE0006946284600F08CF800281AD02088ADF8F5
:102BF0000000E088ADF8020032466946284600F041
:102C00007FF800280DD0A088ADF80000E088ADF86E
:102C1000020032466946284600F072F8002800D0CB
:102C20000120F8BD0020F8BDB0F90020B1F9043052
:102C30009A4213DCB0F90420B1F900309A420DDB5E
:102C4000B0F90220B1F906309A4207DCB0F906006B
:102C5000B1F90210884201DB012070470020704763
:102C6000F8B50D460446B0F90400B1F90010164657
:102C7000884243DBB4F90600B5F9021088423DDB17
:102C8000B4F90000B5F90410884237DCB4F9021039
:102C9000B5F90620914231DC76B3ADF800006088CA
:102CA000ADF8020032466946284600F029F818BB04
:102CB000A088ADF800006088ADF802003246694691
:102CC000284600F01DF8B8B92088ADF80000E0886B
:102CD000ADF8020032466946284600F011F858B9AE
:102CE000A088ADF80000E088ADF8020032466946E1
:102CF000284600F005F808B10020F8BD0120F8BD15
:102D00002DE9FC4114460E46B1F90020B0F900103F
:102D100005468A423ADBB5F90400824236DCB6F950
:102D20000270B5F90220974230DBB5F906309F42B8
:102D30002CDC002C75DD401A9A1A401C521C00B283
:102D400012B200EBD07002EBD272401052109042DF
:102D500000DB1046844200DD0446ADF800102888F0
:102D600000222044ADF804006888ADF802006888AD
:102D700031462044ADF806006846FFF7C1FF40B178
:102D8000BDF804002044ADF804003FE00020BDE899
:102D9000FC81E8880022001BADF80200E888ADF84D
:102DA000060031466846FFF7ABFF28B1BDF80400C6
:102DB0002044ADF8040011E0A8880022001BADF803
:102DC0000000A888ADF8040031466846FFF798FF78
:102DD00050B1BDF80000001BADF80000BDF80200C6
:102DE000001BADF8020016E06888ADF802006888A4
:102DF00000222044ADF8060031466846FFF780FF08
:102E000070B1BDF80000001BADF80000BDF8060071
:102E10002044ADF80600314668461BF06BFBB6E770
:102E2000FFE70120B3E710B5B1F90040B2F9003077
:102E30009C4200DA23460380B1F90240B2F9023025
:102E40009C4200DA23464380B1F90440B2F90430D1
:102E50009C4200DD23468380B1F90610B2F90620BA
:102E6000914200DC1146C18010BD00002DE9F04107
:102E70008AB005461EF068FA0026A04C0746009668
:102E80000DB1E86801E010F053FE606000691BF0CE
:102E9000C5FA6068406908B11BF0C0FA6068C06993
:102EA0001BF0BCFA6068006A1BF0B8FA6068016940
:102EB000F1B31BF061FD1BF0DDFC6068B0F8501150
:102EC00099B30168097C890715D510F08FFE401E63
:102ED00005B2606810F044FE401E03B200221146A5
:102EE00001A800950EF0AAFB606801A90268926B28
:102EF000516004F00BFB60684FF48071303016F0C5
:102F00008DFE6068202100F5987016F087FE6068DD
:102F1000A0F8506138461EF011FA00906068006811
:102F2000436A13B122680099984716F095FC00E0B7
:102F300007E000F02FF900F001F9714D6F692FB132
:102F40003FE0A0F850610AB0BDE8F08116F025FA24
:102F500015F03AFB074600227F211BF044F90FF0E1
:102F6000E0FF0146002238461BF02BF910F043FA2F
:102F70000146002238461BF099F900220321384609
:102F80001BF088F90022032138461BF071F900225A
:102F9000032138461BF072F90022032138461BF04A
:102FA00073F90022032138461BF07AF955A13846FF
:102FB00016F074F900231A460621384617F05CFB18
:102FC0006F6128681EF0BAF94FF4967840450CD22C
:102FD000206841F28831884231D9686800990844F4
:102FE0006860A868401CA86029E01EF0ADF9286060
:102FF00060684FF47A7140680068B1FBF0F069686E
:1030000009B901216960A968F1B14FF47A7251439D
:103010006A68B1FBF2F46E60AE60844200D9044687
:10302000286920442861E868401CE8601EF042FAE4
:10303000C0F16403224634A1384616F066F92F4DDC
:1030400008356C6814B137E00446E4E716F0A5F9DA
:1030500015F0BAFA044600227F211BF0C4F80FF0E5
:1030600060FF0146002220461BF0ABF810F0C3F9C8
:103070000146002220461BF019F9002203212046B8
:103080001BF008F90022032120461BF0F1F8002272
:10309000032120461BF0F2F80022032120461BF0FA
:1030A000F3F818A1204616F0F9F800231A46042177
:1030B000204617F0E1FA6C6028681EF03FF94045A1
:1030C0007FF641AF1EF040F9286002A816F054FCCC
:1030D00004990298401A820A514200EB812066212D
:1030E000B0FBF1F39DF821109DF82000CDE900011F
:1030F00009A1204616F009F925E700008C00002000
:10310000086400203F0000002575204650530A2522
:10311000752525204350550025752E2575206B42B9
:10312000207573656420282564202525290A2564D7
:10313000252520667261672E0000000070B50A4DDB
:10314000002400BFC4EBC40655F8260008B116F0F1
:10315000F7FB05EB86001C2116F060FD641CE4B251
:10316000042CEFD370BD0000786600200849496840
:103170000AE04A68824202D00A68824203D10A7E8B
:1031800042F001020A7649690029F2D17047000035
:1031900060000020704700000421014800F02CBEB0
:1031A000906500201C21014800F026BEA865002083
:1031B0002DE9FF5F0446DDE90E0613B9B0F5807F07
:1031C0007ED0B6F900504FF0FF376D42454307EB14
:1031D00025252DB22580B6F902C0CCF1000C0CFBE0
:1031E00000FC07EB2C273FB26780B6F900C0A1EBCB
:1031F0000C0141434FF0020C0CEB212109B2A180DC
:10320000B6F90280A2EB080242430CEB222000B286
:10321000E080002B7ED04FF00A0A93FBFAF568425B
:1032200000EB800003EB400705F1010928B21EF016
:10323000A1FB00900FFA89F01EF09CFB83465A35E3
:1032400028B21EF097FB804609F15A0000B21EF02A
:1032500091FB0146009AC7F10A0000FB02F300FB54
:1032600008F00BFB073301FB070193FBFAF291FB1C
:10327000FAF04FEA601AB4F90010B4F902000AFB40
:1032800001FCCDF80CC05511378805FB10C207EBC7
:10329000A2220FFA82F905FB01F2BB46029277885F
:1032A0000AFB002107EBA1210BB2B4F90410BE46C2
:1032B0000AFB01FC05FB10C20BEBA22216B200E0D8
:1032C0002FE005FB01F7CDE9007CB4F90680DDF8BD
:1032D0000CC00AFB007005FB18C1DDF804C0009F9C
:1032E00005FB18C5029A0AFB087C0AFB08220BEBB7
:1032F000A1210EEBAC270EEBA02009B20EEBA2220F
:103300000BEBA5250FFA87FC00B212B22DB24F4687
:10331000494500E00EE000DA0F46B54216DAA8464D
:1033200015E000202080491E6080A180521EE280AE
:10333000BDE8FF9F32882A44228072883A44628026
:1033400032881144A180718808444FE0B046474557
:1033500004DA4F46494506DA0F4604E0B54201DA81
:103360002F4600E0374627804F46494500DD0F468F
:10337000B54201DDA84600E0B046474503DD4D46B5
:10338000494505DC01E0B54201DD294600E0314652
:10339000A1809A4201DA154600E01D46844501DA13
:1033A000614600E001468D4205DA9A4201DA114693
:1033B00006E0194604E0844501DA614600E0014672
:1033C00061809A4201DD114600E01946844501DD25
:1033D000654600E00546A94205DD9A4201DD10463A
:1033E00004E0184602E0844500DD6046E0809FE787
:1033F0002DE9FE4F0446D0F800B0B0F90800E58989
:10340000081AB4F90A10511AD4E90932B5F5807FC7
:1034100038D0A589ADB3A66B704345114E437011EA
:10342000266BE16A06FB05F701FB1077694306FB93
:10343000001003EBA72902EBA02080460612B4F986
:1034400004004FEA2927B8424EDD002F4CDBB4F9C7
:103450000610B14248DD002E46DB94F834104A07CE
:1034600045D58A0704F1140322D400FB06704500F9
:103470004FF0020A0BEB05015246184616F078FB96
:1034800027E00DE0256BE66A05FB00F706FB1177E8
:10349000464305FB016003EBA70902EBA000CCE764
:1034A000A56B68434D4303EB601902EB6510C4E75D
:1034B00000FB067000EB40054FF0030A0BEB050123
:1034C0000222184616F054FBE81C584410F8010C70
:1034D000A07594F83400C0071FD04FF4FC60ADF81D
:1034E0000000A18A814218D10020BDE8FE8F32B2CF
:1034F00004F118002369CDE90102002539B2AA467A
:103500008B4613F035FE0090BDF80000A082DDE987
:103510000102594613F0C4FDDAE7E07C78B1A4F863
:103520003C90A4F83E80A4F84070A4F84260656422
:1035300084F848A02046BDE8FE4F00F002B8012004
:10354000D3E72DE9F04F044690F83C10D0F80090F6
:1035500090F83E0087B04FF0FF36702907DAB4F9D3
:1035600040203546012A00D5002580310DE0902904
:1035700016DDB4F94020B4F904300125521C9A42FA
:1035800000DB0025A1F27F114942C9B288467028AC
:1035900009DAB4F94210012900D50026803010E084
:1035A0000025FF21F2E790280DDDB4F94210B4F9AF
:1035B00006200126491C914200DB0026A0F27F1064
:1035C0004042C7B201E00026FF2760690090A07D5D
:1035D0000590002082468346049094F8340040070A
:1035E00044D594F84810606C022201FB050149445F
:1035F00001A816F0BDFAB4F9040094F848100222AC
:103600004843616C06FB0011494403A816F0B0FA68
:10361000B4F9041094F84800626C414306FB01229F
:1036200000FB05901118022202A816F0A1FA94F8E6
:103630003400800761D594F84800616C00EB090202
:1036400000FB0513134413F8013C0493B4F9043050
:10365000434306FB031100FB05000A44014401EB50
:10366000090012F801AC10F8010C45E0B4F8400074
:10367000B4F94220284401B204F1180081462369BC
:1036800013F076FD0190B4F84200B4F940103044D4
:1036900002B254F8103F484613F06AFD0390608E62
:1036A0002368304402B2208E284401B2484613F009
:1036B0005FFD029094F82400103C80071DD5B4F9FA
:1036C000422034F8400F284401B2484613F0E8FC89
:1036D00004906088B4F90010304402B2484613F0F8
:1036E000DFFC82466088304402B234F84009284446
:1036F00001B2484613F0D4FC834694F834004246A5
:103700004546800735D50599049B01FB08F1C8F1B2
:10371000FF0003FB00110AFB08F30BFB0030C1F3B1
:103720000721C0F3072001FB07F3C7F1FF0600FBE9
:1037300006331B0AA375022907D8022803D80020E4
:1037400007B0BDE8F08F002702E0022800D8FF276D
:103750000598022800D800220498022800D8FF22E9
:10376000BAF1020F00D80025BBF1020F03D8FF25E4
:1037700001E0FF20A075EAB1FF2A04D0DDE90001D5
:103780000FF094FD0090BDB1FF2D17D0DDE90210C0
:103790002A460FF08BFD049097B1FF2F05D001460C
:1037A0003A4600980FF082FD0090BDF80000A0821C
:1037B0000120C5E70198E5E70298ECE70398EAE7FE
:1037C000BDF81000F3E700002DE9F0470446B0F91A
:1037D00008000A2700026062B4F90A000002A06231
:1037E000B4F90C1091FBF7F5684200EB800001EB97
:1037F0004006684205F1010800B21EF0BBF882469F
:10380000E84300B21EF0B6F88146C5F15A0000B296
:103810001EF0B0F80546C8F15A0000B21EF0AAF832
:10382000C6F10A0101FB0AF3024609FB06306943AF
:1038300090FBF7F002FB061191FBF7F14011E062FB
:1038400048112063A07C13F040FD94F8341060F31D
:10385000000184F83410A07C13F027FD94F8341094
:1038600060F3410184F83410A07C042824D005289A
:1038700022D0062820D021F0040100BF84F83410A3
:1038800021682162A16921F0E00160F30401A088B0
:1038900060F39421E08860F35F51A161E0894FF407
:1038A000001101EB5001B1FBF0F0A063FF20A07507
:1038B000208AA082BDE8F08741F00401DEE7000025
:1038C0002DE9F04115460E460746114C1DF03CFD12
:1038D00080462B4632463946204614F077F820B110
:1038E0000020A062E06950B110E02C21204616F0C3
:1038F00095F94FF00040A0620020BDE8F0814046FD
:103900001DF01CFDE06108B90120E0612046F4E7EC
:10391000CC65002010B51421074800F06DFA14F0B2
:103920001BF840B1054901600549416005498160C6
:103930000549C16010BDFEE7B4650020857301082C
:1039400001770108797801085173010870B50D46B7
:1039500004461021284616F061F9206800780128F5
:1039600004D0022807D0042807D008E0208A288045
:10397000608A688003E0E06800E00A2068602068F0
:103980004268002A03D02946BDE87040104770BD48
:10399000FEB5866A0446BEB9A08A218A0844A08280
:1039A000E08A618A0844E082204609F07AFF060036
:1039B00079D020460CF00EFA00220921304612F090
:1039C000B7FE607880076ED4208A10B9608A00281C
:1039D00069D00025ADF80450ADF8085094F83C00CB
:1039E00000F00F000328304616D018F02BF80746D9
:1039F000304617F0E1FE03460C200090B4F9121097
:103A00003A46304609F006FBADF80800304617F09C
:103A100025FFC10712D017E017F0A8FF0746304670
:103A200017F044FF024603200090B4F910103B4603
:103A3000304609F0EFFAADF80400E7E7BDF90410ED
:103A4000002901DDADF80450810705D4BDF904104B
:103A5000002901DAADF80450410705D4BDF908107A
:103A6000002901DDADF80850000705D4BDF90800B4
:103A7000002801DAADF8085002AA01A9204620F07A
:103A80000CFA0023BDF90820BDF90410304619F0E6
:103A9000D7FFA08ABDF804100844A082E08ABDF8D0
:103AA00008100844E082FEBD2DE9FC5F0446806AF0
:103AB0005FEA000B71D094F83C0000076DD014F061
:103AC0003FFA019000684021457E584618F066FF95
:103AD0004FF0000818B9A4F81A80A4F818805846C6
:103AE00017F0A2FF8246584617F0A5FF064694F845
:103AF0003C004FF0640900F00F000C2802D00328AE
:103B00004CD09AE0A4F8188056B1B4F91A500027A6
:103B100014F016FA0068407EC0F16401484622E0C5
:103B2000B4F91A00C5F16401484390FBF9F06083D1
:103B3000584617F041FE0546584617F083FF0246E7
:103B40000C200090B4F91A102B46584609F062FA7E
:103B50006083024600231EE07A1917B201FB05F2CA
:103B600092FBF0F215B2002DF6D1ADF80070A4F87A
:103B70001A806A460021204620F08FF941F6FF7234
:103B8000BDF900305142584609F0F0FFBDF8001071
:103B90000123084402B200214CE09AE0A4F81A8004
:103BA000BAF1000F0AD0B4F91850002714F0C8F980
:103BB00000684946407EC0F1640022E0B4F9180074
:103BC000C5F16401484390FBF9F02083584617F093
:103BD0006DFE0546584617F0C9FE034603200090C7
:103BE000B4F918102A46584609F014FA2083014601
:103BF00000231EE07A1917B200FB05F292FBF1F2E6
:103C000015B2002DF6D1ADF80070A4F8188000228E
:103C10006946204620F041F941F6FF72BDF90030B7
:103C20005142584609F01AFFBDF80010012308441C
:103C300001B20022584619F003FF208B002848D11A
:103C4000608B002845D1C6B9584617F0FBFE0546E3
:103C5000584617F0B1FD002D06DC00280DDD002DC3
:103C600002DA01232A4604E0002806DA0123404252
:103C700002B20021584619F0E3FEBAF1000F19D143
:103C8000584617F013FE0546584617F06FFE002DF4
:103C900007DC00280EDD002D03DA0123002229466F
:103CA00005E0002806DA01230022404201B258460E
:103CB00019F0C6FE0A215846019A12F039FD6078C3
:103CC000800706D414F83C0F20F00F00207044F851
:103CD000148CBDE8FC9F00007FB50E46040003D1A4
:103CE0000FF026FF040023D00025FEB1ADF80050F0
:103CF000ADF802500FF034FF401EADF8040020462E
:103D00000FF074FF401EADF806006A46314602A867
:103D1000FEF70EFF00280BD02068017C890708D52C
:103D2000DDE90001C4E90C0101202AE0A0F85051AE
:103D30007FBD82690AB102A9904700260BE000BF4F
:103D400004EBC601002202A83031FEF719FF00285B
:103D5000EED1761CB6B2B4F85001B042F0D880B2C1
:103D6000202804D204EBC00002A9303004E0A4F8FB
:103D7000505104F1300069460DF0B7FBB4F8500122
:103D8000401CA4F8500160680028D1D01DF040FC10
:103D90007FBD70B5054600F012F804460CE02146E0
:103DA000284600F01EF806462146284600F071F825
:103DB000204615F0C5FD3446002CF0D170BD00281A
:103DC00000D04068704700B503460022FFF7F7FFB8
:103DD00003E01846521C00F004F80100F9D1104627
:103DE00000BD0068091D4058704700684058704782
:103DF000002800D08068704700224260C91C21F072
:103E0000030182600160704770B5044600680830A5
:103E100015F00CFD050013D00146002220461EF0CF
:103E2000EBFC2946204662681EF0E0FC616819B18F
:103E30002A4620461EF0E0FC6560A06800B9A56037
:103E4000284670BD70B504460068083015F0EEFCD9
:103E5000050013D00146002220461EF0C7FC29466B
:103E60002046A2681EF0C8FCA16819B12A46204667
:103E70001EF0BCFCA560606800B96560284670BD96
:103E800028B1416809B9806808B100207047012055
:103E9000704770B504000DD0FFF791FF00228842F3
:103EA000204608D1FFF79DFF6060011E01D000226F
:103EB0001EE0A26070BDFFF79BFF884220680844A7
:103EC0000AD10168A16029B12046BDE870400022F6
:103ED0001EF08CBC626070BD05682046FFF781FF54
:103EE00006460246294620461EF080FC2A463146F8
:103EF0002046BDE870401EF07FBC10B50446006847
:103F000082680AB12146904720680068002801D0E5
:103F10002060F5E710BD8068002801D0B0F91600D8
:103F2000704700002DE9F047074690B0408C189E7E
:103F300040F00400788490463A8499468A46328953
:103F4000384618F093FB0546A7F820903289514671
:103F5000384618F08BFB0446788CA54220F004000C
:103F6000788403D12904B1EB044F68D0A7F82080EE
:103F700032895146384618F079FB05468046A7F845
:103F80002090514638460AF0BFFF318900682A4622
:103F90001BF0E6FE3089602823D147F6FF794D45B6
:103FA00001D04C451DD1384618F0AFFC00EBD07065
:103FB0004510384618F0A9FC00EBD0704010C845F9
:103FC00006D1691C431C994200DA00E01946884674
:103FD0004C4506D1691C421C914201DA6C1C00E080
:103FE00014461948FFF710FF05002BD02F60C5E9D4
:103FF00003843089A8806846C5F808A00CF084FDC9
:104000001248FF21CDE90050114802901148039059
:1040100000200790CDE9080130880A9070889DF84B
:104020003E1040420B90F0680690002060F30001C3
:104030008DF83E103069059068460CF0D9FD10B03F
:10404000BDE8F087FEE70000C065002015680208A3
:10405000096A02086569020814210148FFF7CCBE0D
:10406000C06500202DE9FC5F002592468B46064680
:104070002C46042743F60F0843F60E0900E100BF63
:10408000F16807EBC400085882017DD480B230EAA1
:104090000B0212D05FF0000230EA0A000FD00020BD
:1040A000824271D051F8340001AA41F6100100900B
:1040B0001BF03CFC002868D103E00122ECE7012062
:1040C000EEE701AA41F6110100981BF02FFC002831
:1040D00073D101AA41F6120100981BF027FC0028B9
:1040E0006BD101AA41F6130100981BF01FFC0028B8
:1040F00063D101AA41F6150100981BF017FC0028B6
:104100005BD101AA41F6140100981BF00FFCE0BB43
:1041100001AA41F2690100981BF008FCA8BB01AAA2
:1041200043F20C0100981BF001FC70BB01AA43F2A2
:104130000D0100981BF0FAFB38BB01AA41F2010106
:1041400000981BF0F3FB00BB01AA41F204010098A8
:104150001BF0ECFBC8B901AA41F2020100981BF068
:10416000E5FB90B901AA41F2030100981BF0DEFBC8
:1041700058B901AA41F2050100981BF0D7FB20B9FC
:1041800001AA41F2060101E079E016E000981BF077
:10419000CDFB90B901AA41F2320100981BF0C6FB99
:1041A00058B901AA414600981BF0C0FB28B901AAE2
:1041B000494600981BF0BAFB10B10320BDE8FC9FF4
:1041C00001AA40F60A0100981BF0B0FBF0BB01AA5F
:1041D00040F60B0100981BF0A9FBB8BB01AA4146B1
:1041E00000981BF0A3FB88BB01AA494600981BF06E
:1041F0009DFB58BB01AA40F63C0100981BF096FBC2
:1042000020BB01AA40F63D0100981BF08FFBE8B9E6
:1042100001AA40F63A0100981BF088FBB0B901AA48
:104220004FF4046100981BF081FB78B901AA40F6B5
:10423000450100981BF07AFB40B901AA40F6410104
:1042400000981BF073FB08B901AA00E013E040F6E8
:10425000420100981BF06AFB68B901AA40F64301CD
:1042600000981BF063FB30B901AA40F649010098A1
:104270001BF05CFB08B1022501E005B90125641CB7
:10428000708CC0F3C500A0423FF6FAAE284695E711
:1042900001484068704700008C000020054900205C
:1042A00048600861C8608860086048610249086029
:1042B000486070470864002094000020C0F3041098
:1042C000072800D90720704710B518210348FFF7C9
:1042D00093FD03490120087010BD00006C650020AB
:1042E000040200202DE9F04190460C46050015D04F
:1042F000FCF747F80A4F06462146BA682846904719
:104300000446BA682819414690470146701A03E0EE
:104310006218AA5C2A55641CA042F9D2BDE8F0815B
:10432000180200202DE9F041094D90460E466A68BA
:104330001C46074619469047306020B120686A68DD
:10434000384400219047C8F80000BDE8F081000023
:10435000180200202DE9F04F87B08A46DDE9105899
:104360001F4693460446002105B129805CB12078A0
:10437000002809D0BAF1000F05D0002618F0060F6A
:1043800015D0002004E0002007B0BDE8F08F401CED
:10439000215C0A2904D00D2902D00029F7D100E0C0
:1043A000401C002DF0D04FF0FF312980ECE75FEA90
:1043B000887001D541F6FF77894608468DF81410BC
:1043C000049127E00498CDF8189068B34FF0000CE2
:1043D00005AA06ABCDF80CC0CDF80080CDE90132BE
:1043E00020443B465A4651461DF0EEFA06997A1A89
:1043F000314417B20EB288B1049901440491207877
:104400000A280BD00D2809D0605C0A280FD00D288F
:104410000DD00846205C08B1002FD3DC049848B1C9
:1044200005B12E800498AFE74FF0010CD0E7481C8F
:104430000490F3E7064A04A9204652689047002DED
:10444000F0D001460022504612F04DFA06B2E8E7DD
:10445000180200202DE9F0411746884606001ED0BC
:10446000002F1CD0FBF78DFF04463846FBF789FF71
:10447000050014D00B4A2C444146926830469047C0
:10448000411903E0621BB25C3255641EA142F9D9A6
:1044900030442A463946BDE8F04115F081BBBDE8FD
:1044A000F08100001802002000230278232902D0A6
:1044B000012A0DD00FE02AB10021012A04D0022ADE
:1044C00004D008E0012101E0017004E0017001E086
:1044D000202902D00123184670470221F6E72DE972
:1044E000F0410E46804602460021334608461DF044
:1044F000A7FC04460027401C15F098F9050008D0D9
:104500002F5533464246611C1DF09AFC2846BDE8F3
:10451000F081FEE72DE9F0471E4614460D4682461F
:10452000DDF8209015E000BF4FEA540808FB06575D
:10453000394650464A469047002808DD44F30000BB
:10454000C0EB540407EB0605A4F1010401E005DA11
:104550004446002CE8D12046BDE8F0873846FBE70A
:104560002DE9FC5F9B460CAB8A468146DDE9116074
:1045700093E81210DDE90F575FEA80784FF03003BF
:104580001AD45EB15FEAC07808D000F00C0858EA8F
:104590000C0803D0761E01E00B55641CBC4204D20B
:1045A000202CF9D301E00B55641C5FEAC07803D0DE
:1045B000B44201D2202CF6D35FEAC06825D55FEA69
:1045C00040580AD44CB1BC4201D0B44205D1641E5B
:1045D00003D0102D03D1641E04E0102D02D0022D53
:1045E0000AD00EE0850603D4202C1ED2782506E0E2
:1045F000202C1AD2582502E0202C16D262250D5507
:10460000641C202C11D20B55641C202C0DD2BCF143
:10461000000F01D02D2306E0430701D52B2302E034
:10462000030702D520230B55641CCDE900BAC84608
:10463000154681468B46AA46800714D1274607E0D7
:104640002A46DDE900316D1C2020C446E0477F1C6E
:10465000B742F5D307E02A466D1C641EDDE9003140
:104660001BF80400C047002CF5D15FEA897006D41E
:1046700009E02A46DDE900316D1C2020C047A5EB8A
:104680000A00B042F5D32846BDE8FC9F2DE9F04F63
:104690008FB099468B46DDE91818DDE91C63DDE92A
:1046A0001A4792468646002209B923F0100358059E
:1046B00007AD00D5C9B1B1FBF4F004FB1010C0B2D6
:1046C0000A2801D2303009E05FEA836C02D54FF04E
:1046D000410C01E04FF0610C60440A38B1FBF4F189
:1046E000A854521C09B1202AE5D3CDF80880CDE9A1
:1046F0000563CDE90052CDE903474B465246594682
:104700007046FFF72DFF0FB0BDE8F08F2DE9FF4F8A
:104710008FB01CACDDE9239594E8030820AC94E845
:10472000C004002450EA010201D125F010056A05F9
:104730000DF11C0802D550EA010217D032463B4663
:10474000FBF784FDD2B20A2A01D2303206E0AB0672
:1047500001D5412300E061231A440A3A08F80420F5
:10476000641C50EA010201D0202CE7D3CDE900847B
:10477000CDF808B0CDE90595CDE9036A0FAF97E80C
:104780000F00FFF7EDFE13B0BDE8F08F9A4200D2A4
:1047900088547047704700002DE9FF4F89B00546E7
:1047A0000A9800249246002800D1FE4D8FE125286A
:1047B00004D02246641C53460A990BE2491C4FF070
:1047C000000808460C9101782B2919D004DC202917
:1047D00019D0232904D119E02D290ED0302909D070
:1047E0000026C8B2FEF784F9B0B10CA8FEF71DF997
:1047F00006461FE048F001010AE048F0020107E028
:1048000048F0040104E048F0080101E048F010011C
:10481000401C88460C90D6E70C9908782A2809D1C4
:10482000169840C81690002E02DA48F00208764228
:10483000491C0C910C984FF0000B01782E2919D1CE
:10484000401C0C9048F480680078FEF751F920B1C4
:104850000CA8FEF7EAF883460CE00C9A10782A2898
:1048600008D1169901C91691002800DC0020521CBD
:1048700083460C920C9801786C290AD004DC6829D4
:104880000FD06A2919D128E0742929D07A2914D1A6
:1048900026E0401C0C90017848F480786C291CD0EC
:1048A0000BE0401C0C90017848F08008682904D186
:1048B00048F04001401C88460C9001460078692869
:1048C00022D015DC62281FD00DDC252872D050289C
:1048D0001AD058287FF46DAF16E048F40071E9E76C
:1048E00048F48071E6E7632879D06428F2D10BE0C0
:1048F000732875D004DC6F2806D07028EAD103E055
:10490000752801D07828E5D178280DD058280BD00B
:1049100070280BD0502809D06F2816D0622816D0E6
:104920000A2228F0100016E0102207E04878102232
:1049300048F48878562804D1491C0C9108785828E6
:1049400007D00878502804D006E0082209E00222A7
:1049500007E048F0200080460878692803D06428E2
:1049600001D028F00C085FEA485001D528F0010872
:10497000087869281FD064281DD0562864D05FEAC3
:10498000885072D51698CDF818B0C01D0021CDE919
:1049900004210291CDE9076820F007005346F0E8B2
:1049A0000212CDE900121690224628460A99FFF716
:1049B000ADFE88E009E15FEA885022D5169804AF81
:1049C000C01D20F00703F3E802011693002387E8D7
:1049D0000C08CDE90768002903DA012202E07FE034
:1049E000A6E00022002302921A461B1A8A4103DB2A
:1049F0000022404262EB010153462246CDE900010C
:104A0000D3E75FEAC85004D5169901C90FE04042C8
:104A100015E05FEA486003D5169911F8040B06E02B
:104A20005FEA0860F0D5169931F8040B00B21691D0
:104A3000CDE9022BCDE90468C10F0028E7DD53461C
:104A40002246CDE900013AE01699AAEB040201C919
:104A5000169141680968009103680A98011928466F
:104A6000FFF79AFE04442FE0FFE75FEAC8500CD539
:104A7000CDE9022BCDE9046816980021534604C8FD
:104A8000CDE900211690224619E05FEA486003D57F
:104A9000169810F8041B08E05FEA0860169803D522
:104AA00030F8041B89B200E002C8169001AF002064
:104AB000009187E80508CDE9046853462246284658
:104AC0000A99FFF7E3FD04460C98401C0C900C99E2
:104AD000087800287FF46BAE54457DD222467DE0F5
:104AE00001275FEA887006D509E02246641C534618
:104AF00020200A99A84738467F1CB042F5D3169863
:104B00002246641C10F804CB1690534660460A995E
:104B1000A8475FEA887006D4D6E72246641C53464D
:104B200020200A99A84738467F1CB042F5D3CBE72E
:104B3000169850F8049B16904B46BBF1000001D02C
:104B4000014601E04FF0FF31484600E0401C02788A
:104B50000AB1491EFAD2C71A5FEA485003D558462F
:104B60005F4500D307465FEA887006D511E022460C
:104B7000641C534620200A99A84738467F1CB0423F
:104B8000F5D306E0224609F10109641C53460A994F
:104B9000A84799F8000040B15FEA4851F2D5BBF14F
:104BA000010B01E095470008ECD25FEA887006D45B
:104BB0008AE72246641C534620200A99A8473846B3
:104BC0007F1CB042F5D37FE706E02246641C5346C3
:104BD00025200A99A84777E7AAF101025346002049
:104BE0000A99A8470DB02046BDE8F08F10B5020025
:104BF0004FF000000CD04B1E194200D0FEE70A44D3
:104C0000521E9A43B2F5804F02D20C2A01D91046A7
:104C100010BD0C2010BD08444A1E401E9043114296
:104C200000D0FEE7704700002DE9F0410F4601215A
:104C30000025044641862E460BE01B49FBF75EFC2F
:104C400010B16D1CADB202E0608E401C6086761C17
:104C5000B6B257F8260010B101780029EDD1208EA8
:104C6000A8421ED0A06A002610B114F069FEA66208
:104C7000E06A10B114F064FEE662E80014F0D6FDBC
:104C8000A06238B1680014F0D1FDE06218B1A16AE9
:104C900011B102E0FEE7FEE70025690014F0BEFF57
:104CA0002586BDE8F0810000801F01082DE9F84F3E
:104CB0008146407A0F4600F00700022819D01046BE
:104CC0008046974200DD3A46164603202A4C2B4A7E
:104CD00000EB460020F00305A06811681035411A6A
:104CE000636805EB010C9C4505D2416821F0004149
:104CF00024E00846E4E79D4219D892464FF0FF3B76
:104D000048196168884210D9002269461C48CDF8CC
:104D100000B00BF029FC002269461A480BF024FC75
:104D2000A168DAF80000091AEAE7A068DDE728467A
:104D300014F07CFDC0B1416841F0004188EA67028F
:104D4000416089EA02010160416801F04041491C6B
:104D500031F0804141608681A0F80E8005D500F1D8
:104D600010018160BDE8F88FFEE7A16801F1100233
:104D700029448260A160F5E79C000020F401002036
:104D800091D80008C905010870B586B000228DF8D9
:104D900008208DF80C208DF81020444C90F83C2011
:104DA000142302F00302A5784FF4B476012A23D02D
:104DB000022A5FD0AA4211D010F8265F05EB051534
:104DC00005EB4505B5FBF3F52570407800EB0010C9
:104DD00000EB4000B0FBF3F06070A27004AA03A8DF
:104DE000CDE9000201EB41004FF6FF7101EA4000FE
:104DF00002AB627821781AE0AA4210D0858C05EBCC
:104E000045056D02B5FBF6F5A58090F8270000EB8F
:104E1000001000EB4000B0FBF3F06070A27004AA39
:104E200003A8CDE90002C9B202AB62783CE008F009
:104E300043FA9DF810209DF80C10D308BDF800200F
:104E40009DF8080063F30402ADF800208A08BDF85D
:104E5000001062F34A11ADF80010C108BDF800005F
:104E600061F3CF20ADF8000080B20090BDF80000E3
:104E700006B070BDAA4210D0858C05EB45056D02C9
:104E8000B5FBF6F5A58090F8260000EB001000EBCE
:104E90004000B0FBF3F02070A27004AA03A8CDE993
:104EA0000002CAB2217802ABA088C0E74C01002002
:104EB00010B5084C012020700748FEF780FF00283D
:104EC000A06803D0BDE810401CF0A2BBBDE81040B4
:104ED0001CF092BBD80100209C65002010B5044650
:104EE00090F83E00626B810707D4A18F39B1A1F51C
:104EF0007F43FF3B15D0491EA187A18F89B90AB115
:104F000081070ED521461348FEF7C3FFFFF7D0FFF8
:104F1000E16809B1204688472046BDE8104014F0FA
:104F20000FBDA16B4942E162002A11D0810702D472
:104F3000216B4942E1624110491C61F3410084F850
:104F40003E00616AE069E1616062A06AA26260633A
:104F500010BD00009C65002070B5304D68681CF0E5
:104F6000EDF90646687880F00100687047E000209F
:104F7000287094F83E006978C0F380028A4242D0DB
:104F800061F3820084F83E00E16A8A19030719D4AC
:104F9000002917DC002A15DBC00709D1216939B1C6
:104FA00020468847E1690144E161616A0844606222
:104FB000A16809B12046884794F83E0040F00800F7
:104FC00084F83E00E06A8019E06216D4A16A884243
:104FD00000DDE162A169204688470146206A8842D7
:104FE00004D0216262680AB120689047D4E90A01BE
:104FF000814202DB2046FFF771FF287818B108488C
:10500000FEF7DDFE03E021460548FEF7EAFE040058
:10501000ADD11CF099F9686070BD0000D801002086
:105020009C65002070B5044640680D4608B1FFF746
:10503000F9FF2268002A04D029462046BDE87040C6
:10504000104770BD89B20CF0B5B989B20CF0EEB959
:1050500089B20CF0AFB9000030B591B005460C46EE
:1050600068460BF051FD002000950A9060420B90BD
:105070000348039068460BF0BBFD11B030BD000043
:10508000BBAE010810B50446406882080AD04968E2
:1050900021F00301091D08446060204600F042F839
:1050A000204610BDFEE74068103120F00300884222
:1050B00001D301207047002070472DE9FC470546C9
:1050C00048680C4620F0030001AA69461DF0E8F983
:1050D000DDE9007005EBC71101EB80098046D9F8C6
:1050E000340060B164B1C4E9020504F10806C4608B
:1050F00030460421FFF78FFD864202D0FEE7FEE72F
:10510000FEE7C9F834400120296900FA07F211438B
:10511000296105EB870100FA08F04A6902434A61F8
:10512000BDE8FC8710B5044600F087F8046010BDA8
:105130002DE9FC4706464FF000000D0000900746A1
:10514000019042D00C46E9460DF10408802907D3AE
:10515000084621F03CFB411F01208840401E0444CA
:105160004246494620461DF09BF9009C082C2CDA4B
:1051700006EB8400019A40694FF0FF3101FA02F218
:1051800010400CD1641C3069A14008401DD021F0B2
:1051900016FB0446009006EB8000406978B121F0D0
:1051A0000EFB034606EBC411019001EB8000476B38
:1051B0005FB1786820F00300A84201D2FEE7FEE765
:1051C00039463046009A1EF0A3FC3846BDE8FC87FD
:1051D00010B50446FFF7A6FF416841F002014160A7
:1051E000606840F00100606010BD10B5044600F03A
:1051F00024F8416821F002014160606820F001005C
:10520000606010BD70B506460D46084600F015F802
:10521000040010D02079C0070BD0686880080BD03C
:105220002146304600F03CF821462846FFF72AFF89
:105230000546284670BDFEE7FEE7426800F108011A
:1052400022F00300001F0844910800D1FEE77047D8
:1052500070B506460C004FF000001ED0F2B1207968
:105260001546C0071BD011462046FFF71CFF78B13A
:105270002946204600F025F805462046FFF752FF54
:105280006868294640F0020068603046FFF715FF65
:105290002046FFF7AAFF04F1080070BDFEE7FEE715
:1052A0007CB5054648680C4620F0030001AA694613
:1052B0001DF0F6F8DDE90023214628461EF028FC03
:1052C0007CBD2DE9F0410D46044600F10801281F80
:1052D0000E18606806F1080720F00300401BA0F1DB
:1052E000040838460421FFF796FC874200D0FEE709
:1052F000606820F0030108EB0500001D814200D02A
:10530000FEE7307900F0030040EA0800706020F00A
:1053100003000C2800D2FEE7207900F003002843A8
:1053200060603046FFF754FF3046BDE8F081000072
:10533000084A10B5064BC2E900310021C2E902104B
:105340001046FBF727FEBDE810400248FBF76EBE93
:1053500000100040C802002038B5044612F0F0FDED
:10536000054612F022FE0028204605D0218FE18656
:1053700017F0D9FD012038BD10F0A0FF002820460D
:105380001ED010F070FE218FE08E81420CD020875D
:10539000E08E00906A461C21204611F0C9F90128D0
:1053A000E9D1204617F0BFFD284612F00AFE042876
:1053B000E0D1204616F0AEF9002111F050FED9E7F9
:1053C00010F0D8FFD6E770B511F0ADF9054616F02C
:1053D000E7F9044628460CF07DFE01462046BDE86C
:1053E000704001221BF0A4BA2DE9F04F0D4687B0A2
:1053F0000446002116F0C3F860B32946204600F0A9
:1054000061FA2946204600F06FF80021204616F088
:10541000EBFF05900021204617F0B8F8049000211A
:10542000204616F0ADFE012800D000208046002165
:10543000204617F047FA07460021204616F01EFFC7
:1054400042F2D17906464F450BD1608C400508D415
:10545000012707E007B02846BDE8F04F1C2114F0F3
:10546000DDBB0027204616F008F9DFF878A0834658
:1054700020460021BAF8022017F0F8F8D5F810C03D
:10548000AB682968CDF800C0CDF80C80CDE90131BA
:10549000C2B239465846059B09F0A8FD28834E45FF
:1054A00004D1608C800501D4012600E0002620464E
:1054B00016F0C9F8074620460021BAF8062017F072
:1054C000D5F8C2B2686900246B68E9688DE81B00F2
:1054D00031463846049B09F089FD688307B0BDE872
:1054E000F08F0000C00000202DE9F34F81B00C4682
:1054F000019808F0E9FF0646019816F0BEF88246CA
:10550000304600F007FF2061400014F0BBF9206036
:105510002069400014F0B6F9002541F69A79A060A0
:105520003AE036F91510DFF82081494533D10027DC
:10553000DFF818B11FE03946019816F020F85946F7
:10554000009017F032FAA8B9009808F0CFFF0128B0
:1055500010D1009808F0C0FFA8420BD1009817F0B6
:10556000D4F94146404501DA084602E0009817F0B8
:10557000CCF980467F1C019816F013F8B842DAD8AF
:10558000B8F1000F03DBA16821F8158003E0A168E2
:10559000002021F815006D1C2069A842C1D8002503
:1055A0002F46284641F69B784A4615E036F91010FA
:1055B000414504DB0D44A5F5F8559B3D0BE09142B8
:1055C00004D1A16831F81010394403E0A36823F82E
:1055D000101039440FB2401C21698142E6D80021E5
:1055E000019816F001FF2169C1F1010200FB02A040
:1055F000C01B00B2002800DA002000224FF0FF3369
:105600001146C44611E000BF36F9117067450BDB47
:10561000A7F5F8579B3F3AB200FB02F3B3FBF5F353
:10562000A76827F811300B46491C27698F42EBD831
:10563000002B07DBA91A4143B1FBF5F1401AA16821
:1056400021F81300BDE8FE8F01E0FFFF0100060016
:105650002DE9F14F00221146009818F03DFB002182
:10566000009816F0C1FD04460021009816F0A3FF33
:1056700020440FFA80F90021009816F061FE2044C2
:105680000FFA80F8009816F021FD00EB090101EBFC
:105690000800DFF898A006B25446009815F081FF84
:1056A000074600252AE0009821498068006850F8E4
:1056B0002500834617F079F9F8B9584617F094FC9D
:1056C00040BB0021584616F026FD18B3012821D012
:1056D00002281FD003281DD00021584617F00EF9CC
:1056E00058B9BBF81A10BBF81600081A401C00B2D3
:1056F0004844A04200DB044624B26D1CBD42D2D314
:10570000544504D004EB080000B2B04200DC30463F
:10571000BDE8F88F0098BBF91A10B0F91600081A06
:10572000411CA142E8DB0C46E6E7000001E0FFFF78
:10573000010004002DE9F84F00228046114618F0C0
:10574000B5FA0021404616F04FFD044600214046C0
:1057500016F0C8FE20440FFA80FA0021404616F0E9
:1057600066FE20440FFA80F9404616F0BDFC00EBBF
:10577000090101EB0A00DFF844B105B25C4640467E
:1057800015F00FFF07460021404616F0E4FC012803
:105790004FF0000644D078E0D8F808004849006887
:1057A00050F82600009017F000F9C0BB009817F0E1
:1057B0001BFC50B10098B8F91810B0F91400091A80
:1057C000481CA0422ADB4C1C28E00021009816F05F
:1057D000A2FC58B1032809D0062807D0082805D014
:1057E0000021009817F083F858B118E00098B8F934
:1057F0001810B0F91400081A411CA1420EDB0C4627
:105800000CE00098143000900BF0E0FE5044A042F1
:1058100004DB00980BF0DAFE00EB0A0424B2761CDD
:10582000BE42B9D35C453BD004EB090033E000BF76
:10583000D8F808002249006850F82600009017F0B8
:10584000B4F808BB009817F0CFFB60BB00210098AC
:1058500016F061FC38B3012825D0042823D007288E
:1058600021D00021009817F049F868B90098143049
:1058700000900BF0ABFE4844A04204DB00980BF014
:10588000A5FE00EB090424B2761CBE42D0D35C45D1
:1058900006D004EB0A0000B2584501D0A84200DC53
:1058A0002846BDE8F88F0098B0F91810B8F9140030
:1058B000091A481CA042E6DB4C1CE4E701E0FFFFAC
:1058C000010004002DE9F84F0C46834609F01AFA4E
:1058D000064600F01FFD6061400013F0D3FF6060DA
:1058E0006069400013F0CEFF002541F69A79E06030
:1058F0003AE036F91500DFF80C81484533D100272E
:10590000DFF804A11FE03946584615F038FE51462D
:10591000009017F04AF8A8B9009809F079FA012820
:1059200010D1009809F06AFAA8420BD1009815F03E
:10593000F6FE4146404501DA084602E0009815F0BF
:10594000EEFE80467F1C584615F02BFEB842DAD892
:10595000B8F1000F03DBE16821F8158003E0E1688E
:10596000002021F815006D1C6069A842C1D80027ED
:105970003D46384641F69B784A4615E036F9101008
:10598000414504DB0F44A7F5F8579B3F0BE09142DC
:1059900004D1E16831F81010294403E0E36823F8EA
:1059A000101029440DB2401C61698142E6D80021E3
:1059B000584616F0EBFD8146584615F044FE014668
:1059C0006069C0F1010209FB0210401B01B200290D
:1059D00000DA0021002043460FE000BF36F9102016
:1059E0009A4209DBA2F5F8529B3A12B24A43B2FB43
:1059F000F7F2E56825F81020401C62698242EDD874
:105A0000BDE8F88F01E0FFFF010006001CB50B8820
:105A100004892344ADF800304B8844892344ADF811
:105A200002308B8804892344ADF80430C988438947
:105A30001944ADF806104369694698471CBD00003B
:105A4000F8B50D46D0E90C2104468AB112787AB136
:105A500041B100BF1BF079FA0D4909688847616BB5
:105A6000884211D2206B88B100200A4E009006E0D7
:105A700061B1EFE7326869469047A84206D0206BD3
:105A80000099415C0029F5D10020F8BD0120F8BD46
:105A9000300200201C0200202DE9FF4F87B0C8789B
:105AA000189CC0070D46002801D0F14800E0F148DD
:105AB000069001D0F04800E0F048049001D1EE4893
:105AC00000E0EE484FF0100A4FF00C0ECDF8140035
:105AD0006088A1884FF0000BA0EB010001B25A468C
